:020000001028C6
:10000800FE00030EF5000408F6000A08F700831244
:1000180003137F08F8003A291128F901FC01FD01B2
:1000280083011628AD2183120313A901A90A0430FC
:100038002902031843288713823083120313A5006B
:10004800DD30A400A40B2628A50B26280000831267
:1000580003138717823083120313A500DD30A40031
:10006800A40B3428A50B3428000001308312031395
:10007800A4002408A90704302902031C1F28861697
:10008800051E4428861283120313051DC828851DE2
:1000980066288516413083120313A500EE30A400AC
:1000A800A40B5428A50B542883120313851241303E
:1000B80083120313A500EE30A400A40B6128A50B3E
:1000C8006128C82886167910051A79140330831216
:1000D8000313A5009730A400A40B7028A50B702863
:1000E800000083120313051A7B28791C6828C7307F
:1000F80083120313A4008028A40B7F288328000000
:10010800791083120313051A791403308312031329
:10011800A5009730A400A40B8F28A50B8F280000FA
:1001280083120313051E9A28791884280330831232
:100138000313A5009730A400A40BA028A50BA028A2
:100148000000791083120313051A791403308312FF
:100158000313A5009730A400A40BB028A50BB02862
:10016800000083120313051ABB28791CA6280B303C
:1001780083120313A5006230A400A40BC128A50BA9
:10018800C128831203138612831203131E08A800C2
:10019800831603131E0883120313A700013084007B
:1001A800F021A400F021A5002808803AA60025081F
:1001B800803A2602031DE228240827020318F128A2
:1001C8008312031387177919ED28831203138516F1
:1001D800FD28831203138512FD2883120313851645
:1001E8007919FA28831203138717FD28831203133A
:1001F8008713F91C47288312031385124130831291
:100208000313A500EE30A400A40B0829A50B0829A8
:10021800831203138516413083120313A500EE30B1
:10022800A400A40B1529A50B152983120313851205
:10023800413083120313A500EE30A400A40B222939
:10024800A50B222983120313851603308312031387
:10025800A6008A30A5005530A400A40B3129A50BAF
:100268003129A60B312900006400FF2883160313E7
:100278000C1CA029831203130C1CA0291010033096
:100288008400F021F000F021F100F009F109F00AF2
:100298000319F10A7008FF3EF20071080318013EC5
:1002A800FF3EF30072088E0073088F009016101638
:1002B80010140C10FF30FA070318FB0AFF30FB0775
:1002C8007A0A031D7D297B0A031D7D29791D76295C
:1002D800791105308400F021FA00F021FB001F1489
:1002E8009F147D29791507308400F021FA00F02148
:1002F800FB00861E9D297D08F1007C08F000FC0AA1
:100308000319FD0A09308400F021F200F021F300FE
:100318007308803AF4007108803A7402031D962924
:100328007008720203189F29831203138612F914A6
:100338009F29FC01FD016400780883120313FF0064
:1003480077088A0076088400750E8300FE0E7E0EFC
:100358000900831203171E141E11831603130515B3
:1003680005150516831203179E11831603138512AC
:100378000612831203171F118316031386128312A2
:1003880003179F119F1083160313871383120313F8
:10039800061286128717851690161016901090016F
:1003A8001014831603130C140B17811164008316A1
:1003B80003131F088F3950389F00831203139F17A8
:1003C800791105308400F021FA00F021FB00F910C2
:1003D800FC01FD018B17080001308A000408840A1B
:1003E80082070034B1340234E2340434F434013482
:0803F800053400342C340134FB
:02400E00D4FFDD
:00000001FF
